:060000000A128A110C280F
:10000800FE00030EF1000A08F2000A128A159D2D5F
:100018000A128A110F280A128A11FE270A128A1157
:10002800FA008313203084003A300A128A15A92472
:100038000A128A11F90183010A128A11D42B831238
:100048000313C90010303106031D2B282C287328F0
:100058000F30AE000030AF00AC01AD01AA01AB011A
:10006800B501B401A801A901FF30C6004608C900BE
:100078000030BA008630BB008030C6004608BC009D
:100088000A128A1534250A128A11013083120313C1
:10009800BA008730BB00C030C6004608BC000A1250
:1000A8008A1534250A128A11C83083120313C60030
:1000B8004608C4003A300A128A15D9240A128A114D
:1000C800563083120313BA008630BB00D030C60006
:1000D8004608BC000A128A1534250A128A112A30E9
:1000E80083120313490603197A287B28E228233050
:1000F8004906031980288128E228490A0319852816
:100108008628E2280130AA070318AB0A0030AB079B
:100118002B08803AFF0080307F02031D95280330AA
:100128002A02031898289928AE280A308312031344
:10013800C6004608F30035080A128A11EB250A1290
:100148008A11831203134907C7004708B500A8019D
:10015800A901E228831203132B08803AFF0080309C
:100168007F02031DB92803302A02031CBC28BD28BE
:10017800E228831203132B08803AFF0080307F02A5
:10018800031DC82805302A020318CB28CC28E228EA
:100198000A3083120313C6004608F30034080A1213
:1001A8008A11EB250A128A11831203134907C70023
:1001B8004708B4000130A8000030A9002A30831293
:1001C80003134906031DE928EA2822292B08803A47
:1001D800FF0080307F02031DF32803302A02031832
:1001E800F628F728FD2883120313B501AA01AB01ED
:1001F8002229831203132B08803AFF0080307F02E4
:10020800031D082903302A02031C0B290C29222963
:10021800831203132B08803AFF0080307F02031DEE
:10022800172905302A0203181A291B2922298312A3
:100238000313B4010230AA000030AB00233083124C
:1002480003134906031D29292A2937290A128A1165
:10025800F1270A128A11053083120313C6004608D3
:10026800B200071512150130AE070318AF0A0030A7
:10027800AF0710302E062F04031D43294429CA292D
:10028800AE01AF012C082D0403194B294D2901306B
:100298004E290030C600C7014608AC004708AD002B
:1002A800C930C6004608C4000A30F3000030F40024
:1002B8003508C700C8014708F5004808F6000A12C3
:1002C8008A1592260A128A117308303E0A128A1574
:1002D800D9240A128A11CA3083120313C6004608A9
:1002E800C4000A30BE000030BF003508C700C8018E
:1002F8004708C0004808C1000A128A15D4250A1206
:100308008A11831203133E08303E0A128A15D92433
:100318000A128A11C63083120313C6004608C400A5
:100328000A30F3000030F4003408C700C801470859
:10033800F5004808F6000A128A1592260A128A1150
:100348007308303E0A128A15D9240A128A11C73056
:1003580083120313C6004608C4000A30BE000030EA
:10036800BF003408C700C8014708C0004808C100DA
:100378000A128A15D4250A128A11831203133E0819
:10038800303E0A128A15D9240A128A1183120313DD
:100398002C082D040319D129D229FC29EF29203052
:1003A800BA008630BB00C930C6004608BC000A1235
:1003B8008A1534250A128A11FC292030BA008630A1
:1003C800BB00C630C6004608BC000A128A15342590
:1003D8000A128A11FC292908003A0319F429FC2970
:1003E8002808003A0319D329013A0319E129FC29FD
:1003F800080083120313C90011303106031D052AB2
:10040800062A4A2AFF30C6004608C900B3010F3041
:10041800A6000030A700A401A501A201A30186300F
:10042800BA008630BB008030C6004608BC000A12FD
:100438008A1534250A128A118B3083120313C600D9
:100448004608C400DF300A128A15D9240A128A1114
:10045800D93083120313BA008630BB00C030C600FF
:100468004608BC000A128A1534250A128A11563029
:1004780083120313BA008630BB00D030C60046088A
:10048800BC000A128A1534250A128A112A308312EE
:10049800031349060319512A522A832A233049068D
:1004A8000319572A582A832A490A03195C2A5D2AFC
:1004B800832A0130A2070318A30A0030A3072308E0
:1004C800803AFF0080307F02031D6C2A043022022C
:1004D80003186F2A702A3D2B0A3083120313C600B3
:1004E8004608F30033080A128A11EB250A128A110A
:1004F800831203134907C7004708B3003D2B2A306E
:100508004906031D882A892A8D2AB301A201A3015D
:100518003D2B23304906031D922A932A3D2B0A12AC
:100528008A11F1270A128A11233083120313BA00A1
:100538008630BB008030C6004608BC000A128A1507
:1005480034250A128A11B03083120313BA00863098
:10055800BB009030C6004608BC000A128A15342534
:100568000A128A11B43083120313C6004608B50074
:100578001215262B9A30C6004608C4006430F300D2
:100588000030F4003508C700C8014708F5004808DE
:10059800F6000A128A1592260A128A117308303E4A
:1005A8000A128A15D9240A128A119B30831203135E
:1005B800C6004608C4000A30BE000030BF000A303A
:1005C800F3000030F4003508C700C8014708F500FB
:1005D8004808F6000A128A1592260A128A11740827
:1005E80083120313C1007308C0000A128A15D425A8
:1005F8000A128A11831203133E08303E0A128A1522
:10060800D9240A128A119C3083120313C6004608A3
:10061800C4000A30BE000030BF003508C700C8015A
:100628004708C0004808C1000A128A15D4250A12D2
:100638008A11831203133E08303E0A128A15D92400
:100648000A128A11831203133508031D2C2B2D2B34
:10065800BE2A12110A128A11F1270A128A110A30C7
:1006680083120313C6004608B0001030C6004608BF
:10067800B1006430F3000030F40083120313330830
:10068800C600C7014608F5004708F6000A128A1591
:1006980092260A128A117308303E83120313C80087
:1006A8004808B6000A30BE000030BF000A30F30028
:1006B8000030F4003308C600C7014608F5004708B3
:1006C800F6000A128A1592260A128A1174088312F1
:1006D8000313C1007308C0000A128A15D4250A1230
:1006E8008A11831203133E08303EC8004808B70039
:1006F8000A30BE000030BF003308C600C7014608F4
:10070800C0004708C1000A128A15D4250A128A11A6
:10071800831203133E08303EC8004808B800B901E8
:100728000130A6070318A70A0030A70710302606CD
:100738002704031DA02BA12BBE2BA601A70124086B
:1007480025040319A82BAA2B0130AB2B0030C600B7
:10075800C7014608A4004708A5003630BA00003093
:10076800BB00C830C6004608BC000A128A153425EA
:100778000A128A1183120313240825040319C52BAE
:10078800C62BD32B1F30BA008630BB00C830C6003A
:100798004608BC000A128A1534250A128A11080074
:1007A8000A128A15EE240A128A110A128A113725AA
:1007B8000A128A110A128A11F1270A128A1183125F
:1007C8000313B201B20A01300A128A150F250A1260
:1007D8008A1183120313CD004D08D000023032066F
:1007E8000319F72BF82B092D033032060319FD2BBB
:1007F800FE2B092D04303206031D032C042C062C75
:10080800092D092D5003031D0A2C0B2C412C0530F2
:1008180032060319102C112C412C0230CD004D0842
:10082800B2001030CD004D08B1000A128A11F1272C
:100838000A128A11953083120313BA008630BB005E
:10084800C030CD004D08BC000A128A1534250A12A2
:100858008A114D3083120313CF001930CE004F3068
:10086800CD00CD0B352CCE0B352CCF0B352C0A12E9
:100878008A11F1270A128A11092D02305006031D28
:10088800462C472C562C0530320603194C2C4D2C7F
:10089800562C0330CD004D08B2001030CD004D0865
:1008A800B1003B2C03305006031D5B2C5C2C692CDB
:1008B8000430CD004D08B2000930CD004D08B0001D
:1008C8001130CD004D08B1003B2C04305006031DFB
:1008D8006E2C6F2CAF2C3203031D732C742C872CB9
:1008E800B4011E30CD004D08B500121507150A12C7
:1008F8008A11F1270A128A11053083120313CD00D9
:100908004D08B200092D05303206031D8C2C8D2CA4
:10091800A22C35081E3ECD004D08B5003C303502EE
:10092800031C972C982C052C0130CD004D08B407DA
:100938003508C43ECD004D08B500092D07303206F4
:10094800031DA72CA82C052C121507150830CD005F
:100958004D08B200092D05305006031DB42CB52CE6
:10096800BA2C0730CD004D08B200092D06305006CC
:10097800031DBF2CC02C052C0630CD004D08B2003D
:100988003B2C0A128A11B4270A128A112D2D5008FD
:100998000A128A1123200A128A112D2D50080A12D0
:1009A8008A1123200A128A112D2D09303006031DC1
:1009B800DE2CDF2CEE2C50080A128A11FD210A12B7
:1009C8008A110A30831203133006031DEC2CED2C18
:1009D8002D2DE72B0A303006031DF32CF42C2D2D7A
:1009E80050080A128A1123200A128A112D2D0A1280
:1009F8008A15FB260A128A112D2D12110711B20130
:100A0800B20A2D2D121107112D2D8312031332084E
:100A1800CD00CE014E08003A0319132D2D2D4D0897
:100A2800013A0319C52C033A0319CB2C013A0319CF
:100A3800D22C073A0319D92C013A0319FB2C033A93
:100A48000319012D013A0319062D0F3A0319FB2C3E
:100A58002D2D0F3083120313CD004D08B100E72B65
:100A68000A128A110C2883120313C901CA018312BE
:100A780003134908803EC6004608C400FF300A1226
:100A88008A15D9240A128A11013083120313C9075F
:100A98000318CA0A0030CA074A08803AFF008030A3
:100AA8007F02031D592D10304902031C5C2D5D2D5A
:100AB8003B2D123083120313BA008630BB00C030BE
:100AC800C6004608BC000A128A1534250A128A1183
:100AD800343083120313BA008630BB009030C6004E
:100AE8004608BC000A128A1534250A128A11831294
:100AF8000313CB01CC01831203134B08D03EC6006D
:100B08004608C400FF300A128A15D9240A128A112D
:100B1800013083120313CB070318CC0A0030CC072B
:100B28004C08803AFF0080307F02031D9D2D103055
:100B38004B02031CA02DA12D7F2D4D3083120313D2
:100B4800C8001930C7004F30C600C60BA92DC70B07
:100B5800A92DC80BA92D0800831203138619B52DDA
:100B6800B62DEA2D1211071187140A128A11F127DE
:100B78000A128A11453083120313BA008630BB006B
:100B8800C030F8007808BC000A128A1534250A1209
:100B98008A11773083120313BA008630BB00903075
:100BA800F8007808BC000A128A1534250A128A113E
:100BB80083120313861DE12DE22DDC2D87101215FB
:100BC80007150A128A11F1270A128A110800F6007D
:100BD800F501761CF02DF12DF52D7308F40074083D
:100BE800F5070310F30D0310F60C7608031DFD2D11
:100BF800FE2DED2D75080800533445345434203447
:100C0800543449344D34453420343C344D344D3417
:100C18003A34533453343E342034003420342034AE
:100C280050346F3477346534723469346E346734D1
:100C380020344F344E3420342034203400342034CF
:100C480020345034723465342D344834653461347A
:100C5800743469346E3467342034203420340034DA
:100C680020344D346934633472346F3477346134EA
:100C78007634653420344F34763465346E34203419
:100C8800003444344F344F345234203453345434C1
:100C980041345434553453343A344F345034453451
:100CA8004E3400342A343A3443344C3445344134D5
:100CB80052342034203423343A3445344E345434B6
:100CC800453452340034203434342E34533474349C
:100CD8006134723474342F34523465347334753457
:100CE8006D346534003450344C3445344134533415
:100CF8004534203443344C344F3453344534213450
:100D0800213400342034533445345434203454349A
:100D180045344D3450342034283420344334293475
:100D28000034203450346F347734653472342034CE
:100D38003D3420343934303430345734003433348B
:100D48002E3443346F346E347634653463347434FB
:100D580069346F346E340034543469346D34653416
:100D68002034523465346D342E343D34203400340C
:100D78002034543449344D34453420343D342034FF
:100D880020340034543449344D34453420345534F7
:100D98005034213421340034203435342E34503446
:100DA8006134753473346534003420345434453434
:100DB8004D34503420343D34003432342E344734EA
:100DC800723469346C346C34003431342E344D341C
:100DD8006934633472346F340034203436342E343A
:100DE800533474346F347034003434342E34533400
:100DF80074346134723474340034543449344D34A6
:100E080045342D3420340034831203138811081517
:100E1800881408146430F3000030F400FF30F3073E
:100E28000318F40AFF30F407730A031D1F2F740A0E
:100E3800031D1F2F202F122F831203130618252F8F
:100E4800262F282F0130B32F86182B2F2C2F2E2F2B
:100E58000230B32F0619312F322F342F0330B32F1E
:100E680088150811881408146430F3000030F40061
:100E7800FF30F3070318F40AFF30F407730A031D61
:100E8800492F740A031D492F4A2F3C2F831203133D
:100E980006184F2F502F522F0430B32F8618552F76
:100EA800562F582F0530B32F06195B2F5C2F5E2F56
:100EB8000630B32F88150815881008146430F3001D
:100EC8000030F400FF30F3070318F40AFF30F4078A
:100ED800730A031D732F740A031D732F742F662F53
:100EE800831203130618792F7A2F7C2F0730B32F1C
:100EF80086187F2F802F822F0830B32F0619852F51
:100F0800862F882F0930B32F8815081588140810E4
:100F18006430F3000030F400FF30F3070318F40ADC
:100F2800FF30F407730A031D9D2F740A031D9D2FBC
:100F38009E2F902F831203130618A32FA42FA62FDA
:100F48002A30B32F8618A92FAA2FAC2F0030B32F21
:100F58000619AF2FB02FB22F2330B32FFF30080060
:100F6800E93083120313BA008630BB008030F700E3
:100F78007708BC000A128A1534250A128A11E13052
:100F880083120313BA008630BB00C030F70077081D
:100F9800BC000A128A1534250A128A11A33083125A
:100FA8000313BA008630BB009030F7007708BC0006
:100FB8000A128A1534250A128A11F930831203138A
:100FC800BA008630BB00D030F7007708BC000A12A0
:100FD8008A1534250A128A110800F30101300A1211
:100FE8008A1567250A128A11A630F700F70BFA2F1F
:060FF800000008000134B6
:10100000FF1B0A2883137F1883170008840A03191B
:10101000FF0A08007F087F398A000408840A031940
:04102000FF0A820041
:1019520064008001840A0406031900340406AA2CD8
:10196200831603138801091189100A128A152F267A
:101972000A128A1508008312031312149214FA3001
:101982008316031392008C1483120313121108009E
:10199200831603130608073886000808F039880002
:1019A200811383120313881508158814081408007C
:1019B20083120313C500F30144080A128A1567252E
:1019C2000A128A15F301F30A8312031345080A1255
:1019D2008A1567250A128A1508000A128A15B12487
:1019E2000A128A150A128A15C9240A128A150A12BB
:1019F2008A15BC240A128A150B178B178316031338
:101A0200071183120313071183160313871083121E
:101A1200031387108316031386150800F6000A12B3
:101A22008A1108270A128A15F5007508F700760848
:101A3200031D1C2D1D2D1F2D7708332D770A031929
:101A4200232D242D2B2D7A080319282D292D2B2DFA
:101A5200FA011D2D770A031D2F2D302D322DFA018B
:101A6200FA0AFF300800F301831203133C080A123A
:101A72008A1567250A128A15562DF301F30A3B08C7
:101A8200FF003A0884000A128A1500200A128A15F9
:101A92000A128A1567250A128A1501308312031366
:101AA200BA070318BB0A0030BB07831203133B08B3
:101AB200FF003A0884000A128A1500200A128A15C9
:101AC200003A031D652D662D3E2D0800F6007318A1
:101AD2006B2D6F2D831203130915722D83120313BD
:101AE20009117608F03988008914A630F400F40B45
:101AF200782D000083120313891076080F39F40041
:101B020003300310F40DFF3E031D822D0310740DEC
:101B120088008914A630F400F40B8D2D0000831286
:101B2200031389101B30F5009E30F400F40B972D3F
:101B3200F50B972D00000800831203138C1CA22DB5
:101B4200A32DCD2D0130A0070318A10A0030A10753
:101B5200E2302006043003192106031DB12DB22DF7
:101B6200CC2DA001A10135080319B82DB92DBC2D2A
:101B72000130B502CC2D3508031DC02DC12DCC2D51
:101B820034080319C52DC62DCC2D0130B4023B30CB
:101B9200F0007008B5008C1072088A00710E830084
:101BA200FE0E7E0E090083120313C301C11FDA2D3C
:101BB200DB2DE22DC009C109C00A0319C10AC30104
:101BC200C30ABF1FE52DE62DEB2DBE09BF09BE0AD4
:101BD2000319BF0A3E083F040319F02DF12D202EF0
:101BE200C201C20AFF2D01300310BE0DBF0DFF3E20
:101BF200031DF52D0130F8007808C207BF1F022E21
:101C0200032EF42D3F084102031D092E3E08400217
:101C1200031C0C2E0D2E132E3E08C0023F08031C7F
:101C2200C103C10201300310BF0CBE0CFF3E031DF5
:101C3200142E0130C202031D1F2E202E032E430834
:101C42000319242E252E2A2EC009C109C00A031900
:101C5200C10A4108BF004008BE000800C330F800B6
:101C6200CD30F700F70B332EF80B332EF301333060
:101C72000A128A1567250A128A151B30F8009E304F
:101C8200F700F70B422EF80B422E0000F30133301F
:101C92000A128A1567250A128A15A630F700F70B71
:101CA200502E0000F30133300A128A1567250A12FA
:101CB2008A155B2E5C2E0000F30102300A128A158F
:101CC20067250A128A15A630F700F70B662E000068
:101CD200F30128300A128A1567250A128A15A630DE
:101CE200F700F70B722E0000F30101300A128A1579
:101CF20067250A128A150430F8003D30F700F70B09
:101D0200802EF80B802E852EF3010C300A128A15D4
:101D120067250A128A15A630F700F70B8E2E0000EF
:101D2200080083120313BB01F41F982E992EA02ED4
:101D3200F309F409F30A0319F40ABB01BB0AF61FFB
:101D4200A32EA42EAD2EF509F609F50A0319F60AFB
:101D52000130F7007708BB06BC01BD0173087404AB
:101D62000319B42EB52EEC2EBA01BA0AC32E0130D5
:101D72000310F30DF40DFF3E031DB92E0130F700E1
:101D82007708BA07F41FC62EC72EB82E01300310EB
:101D9200BC0DBD0DFF3E031DC82E74087602031D47
:101DA200D42E73087502031CD72ED82EDF2E73088B
:101DB200F5027408031CF603F6023C14013003100A
:101DC200F40CF30CFF3E031DE02E0130BA02031D9A
:101DD200EB2EEC2EC72E3B080319F02EF12EF62E19
:101DE200BC09BD09BC0A0319BD0A3D08F4003C0840
:101DF200F30008000A128A11B0250A128A15BC30B3
:101E020083120313BA008630BB008030C600460836
:101E1200BC000A128A1534250A128A1589308312E7
:101E22000313C6004608C4000A30F3000030F40071
:101E32003408C700C8014708F5004808F6000A122E
:101E42008A1592260A128A157308303E0A128A15DA
:101E5200D9240A128A158A3083120313C60046084F
:101E6200C4000A30BE000030BF003408C700C801F9
:101E72004708C0004808C1000A128A15D4250A1270
:101E82008A15831203133E08303E0A128A15D9249A
:101E92000A128A158B3083120313C6004608C40047
:101EA2003A300A128A15D9240A128A158C30831202
:101EB2000313C6004608C4000A30F3000030F400E1
:101EC2003508C700C8014708F5004808F6000A129D
:101ED2008A1592260A128A157308303E0A128A154A
:101EE200D9240A128A158D3083120313C6004608BC
:101EF200C4000A30BE000030BF003508C700C80168
:101F02004708C0004808C1000A128A15D4250A12DF
:101F12008A15831203133E08303E0A128A15D92409
:101F22000A128A15673083120313BA008630BB0087
:101F3200C030C6004608BC000A128A1534250A12AF
:101F42008A15D03083120313BA008630BB0090305A
:101F5200C6004608BC000A128A1534250A128A15E0
:101F6200F13083120313BA008630BB00D030C600B2
:101F72004608BC000A128A1534250A128A158312F1
:101F820003133508031DC62FC72FFF2F3408031D67
:101F9200CB2FCC2FFF2F0A128A11F1270A128A1592
:101FA200C63083120313BA008630BB00C030C600AD
:101FB2004608BC000A128A1534250A128A158312B1
:101FC20003131211071187144D3083120313C80033
:101FD2001930C7004F30C600C60BED2FC70BED2FCF
:101FE200C80BED2F8312031387100A128A11F127EF
:0E1FF2000A128A1583120313B201B20A080004
:02400E00FB3F76
:00000001FF
